:1000000038C052C051C050C04FC04EC04DC04CC08F
:100010004BC04AC049C048C047C046C045C044C0A4
:1000200043C042C041C0084AD73B3BCE016E84BCAE
:10003000BFFDC12F3D6C74319ABD56833DDA3D0042
:10004000C77F11BED9E4BB4C3E916BAAAABE00008B
:1000500000803F05A84CCDB2D44EB93836A9020C69
:1000600050B9918688083CA6AAAA2ABE0000008042
:100070003F0011241FBECFE5D4E0DEBFCDBF10E0AE
:10008000A0E6B0E0E4EFF6E102C005900D92AE3BD1
:10009000B107D9F720E0AEEBB0E001C01D92A63E5B
:1000A000B207E1F79AD324CBABCF11B88CE080B97B
:1000B000089594EA96BF4FEF50E060E070E006B616
:1000C00007FC06C04150510961097109C0F704C01D
:1000D000452B462B472B11F191B1987F983011F0A9
:1000E0009031F1F483B984E886BF8FEF90E0A0E00F
:1000F000B0E006B607FC05C00197A109B109C8F731
:1001000004C0892B8A2B8B2B69F091B1987F983191
:1001100059F081E0903449F480E0089581E0089539
:1001200081E0089581E0089580E0089584E986BF24
:1001300080E090E006B604FE05C00196811521E03E
:100140009207C1F7089583B984E886BF8FEF90E0E6
:10015000A0E0B0E006B607FC05C00197A109B1090F
:10016000C8F704C0892B8A2B8B2B39F091B1987F6B
:1001700081E0983219F480E0089581E0089584ECDC
:1001800086BF8FEF90E0A0E0B0E006B607FC05C0A8
:100190000197A109B109C8F704C0892B8A2B8B2BC1
:1001A00011F083B1089580E0089584E886BF8FEF51
:1001B00090E0A0E0B0E006B607FC05C00197A109F9
:1001C000B109C8F704C0892B8A2B8B2B11F083B19E
:1001D000089580E00895AF92BF92DF92EF92FF9270
:1001E0000F931F93CF93DF93662389F1C52FD42FED
:1001F000D62E182F80ED5DDF812FA5DF83E08A9555
:10020000F1F7000081ED55DF0D2F1C2FEE24EA944D
:10021000ED0CF12CEFEFEE1AFE0AC0E0D0E0AD2CB1
:10022000B12CF1E0AF1AB108CA15DB0521F4BDDF2E
:10023000F801808303C0A3DFF801808321960F5F5C
:100240001F4FCE15DF0581F7CD2D70DF01C0C0E057
:100250008C2FDF91CF911F910F91FF90EF90DF9046
:10026000BF90AF900895AB0161E0B5DF0895EF92C4
:10027000FF920F931F93CF93DF936623B1F07A0120
:10028000162FC82F80ED15DF8C2F5DDFE7016FEF94
:10029000610F062F10E00F5F1F4F0E0D1F1D89917C
:1002A00052DFC017D107D9F741DFDF91CF911F91FE
:1002B0000F91FF90EF900895CF93DF931F92CDB7EA
:1002C000DEB76983AE014F5F5F4F61E0D0DF0F9013
:1002D000DF91CF910895EF92FF920F931F93CF93E9
:1002E000DF931F92CDB7DEB7442379F1F22E142F9E
:1002F000062FE82E1982BE016F5F7F4FB4DF88237F
:1003000021F1402F50E0411B51094F5F5F4F81E0C9
:1003100090E002C0880F991F1A95E2F70197042E0A
:1003200002C0880F991F0A94E2F72F2D30E002C017
:10033000220F331F4A95E2F7682F60959981692350
:100340008223682B69838E2DB7DF0F90DF91CF91C9
:100350001F910F91FF90EF900895FF920F931F93BD
:10036000CF93DF931F92CDB7DEB7182F062FF42E51
:10037000BE016F5F7F4F77DFFF2059F021E030E053
:10038000B90102C0660F771F0A95E2F78981682BD1
:100390000BC021E030E0B90102C0660F771F0A955B
:1003A000E2F76095998169236983812F85DF0F903A
:1003B000DF91CF911F910F91FF90089540E066E08B
:1003C0008BE6CBDF089571DE83E08A95F1F70000BC
:1003D00087EA91E60197F1F700C00000EFDF83ECB8
:1003E00099E00197F1F700C0000021E043E062E0EE
:1003F0008BE671DF23E043E062E08AE16CDF64E0DA
:1004000089E15ADF23E042E064E08BE164DF20E031
:1004100042E064E08CE15FDF0895EF92FF920F937A
:100420001F93CF93DF937C018B01EA014EEB50E0E9
:100430006EE08BE3D0DEEEEBF0E08081218130E0F6
:10044000382BD7012D933C932281838190E0922B0E
:10045000D8018D939C932481858190E0922B998380
:100460008883DF91CF911F910F91FF90EF900895B6
:10047000CF92DF92EF92FF920F931F93CF93DF9370
:1004800000D000D000D0CDB7DEB76C017B018A016F
:100490001A8219821C821B821E821D82AE014B5F52
:1004A0005F4FBE016D5F7F4FCE010196B6DF698160
:1004B0007A81072E000C880B990B44D420E030E0A1
:1004C00040E858E31BD5F6016083718382839383F0
:1004D0006B817C81072E000C880B990B33D420E0B4
:1004E00030E040E858E30AD5F701608371838283E6
:1004F00093836D817E81072E000C880B990B22D48B
:1005000020E030E040E858E3F9D4F80160837183DB
:100510008283938326960FB6F894DEBF0FBECDBFBD
:10052000DF91CF911F910F91FF90EF90DF90CF90CF
:10053000089580FF02C0939A01C0939881FF02C082
:10054000929A01C0929882FF02C0919A01C091983C
:1005500083FF02C0909A01C09098959A959883EF76
:1005600091E00197F1F700C000000895CF93C82FE4
:10057000969882958F70DDDF8C2FDBDFCF91089509
:10058000CF93C82F969A82958F70D3DF8C2FD1DFAF
:10059000CF910895613019F48158E8DF08956230F1
:1005A00019F48154E3DF0895633019F48D56DEDFCA
:1005B0000895643011F48D52D9DF08958E9A8F9A80
:1005C0008D9A8B9A8A9A899A889A969895982FE903
:1005D00086E891E0215080409040E1F700C00000A3
:1005E00083E0A7DF8BE792E90197F1F700C00000F5
:1005F00083E09FDF83ED90E30197F1F700C00000F7
:1006000083E097DF82E095DF88E2B0DF81E0AEDF54
:1006100083EC99E00197F1F700C0000082E0A6DFCB
:1006200088E0A4DF8CE0A2DF86E0A0DF80E19EDF2F
:1006300080E89CDF08950F931F93CF93FC01808186
:10064000882371F08F010F5F1F4FC0E099DFCF5FEC
:10065000F80181918F018111F9CFC43111F406C0E5
:10066000C0E080E28DDFCF5FC431D9F7CF911F9119
:100670000F910895CF92DF92EF92FF920F931F9305
:10068000CF93DF9388B38F6088BBA0E0B0E000E435
:1006900010E0CC24C394D12CE12CF12CC8E0D0E0A4
:1006A00087B3807887BB27B3C8010A2E02C095950F
:1006B00087950A94E2F7822B87BBEC2DFD2D6E2DDA
:1006C0007F2D03C06F5F7F4F3196CB0161157105A0
:1006D00019F4B399F7CF1FC026B330E0AE01062E50
:1006E00002C0559547950A94E2F724233523232B1E
:1006F00041F49B01220F331F820F931F8A0F9B1F10
:100700000BC0E430F105F4F21196A330B10541F6C7
:100710008FEF90E001C0CD01DF91CF911F910F913C
:10072000FF90EF90DF90CF900895A4DF893091057E
:1007300014F4019608958A30910541F089309105AD
:1007400041F00B9749F08FEF90E0089580E090E042
:1007500008958FEF9FEF08958EEF9FEF0895982FE4
:10076000862F692F17DF8EEC90E065DF0895CF921A
:10077000DF92EF92FF926B017C0120E030E0A90153
:1007800042D288231CF01092E30007C0F7FAF094DD
:10079000F7F8F09481E08093E300C701B6019FD29F
:1007A0007093E5006093E400072E000C880B990B12
:1007B000C9D29B01AC01C701B60198D120E030E05D
:1007C00048EC52E49BD38BD27093CD006093CC0065
:1007D000FF90EF90DF90CF900895CF93DF93CDB748
:1007E000DEB764970FB6F894DEBF0FBECDBF789426
:1007F000E5DEE9DD87EA91E60197F1F700C0000048
:1008000081E0B4DEA3ECB9E01197F1F700C000007D
:1008100082E1E0E6F0E0AEECB0E001900D928A9566
:10082000E1F761E081E09BDF85E1E9EAF0E0AEEC31
:10083000B0E001900D928A95E1F761E082E08FDFF0
:1008400019821A821B821C821D821E821F821886B8
:1008500019861A861B861C8680E390E09093CF0051
:100860008093CE0061E083E07ADF00E010E00F2E9D
:10087000FAE0AF2EB12CF02D0F2EFCE8CF2EF0E0D9
:10088000DF2EF02D0F2EFEECEF2EF0E0FF2EF02DE0
:100890004CDF8F3F9105E1F3EBE7F2E93197F1F798
:1008A00000C000008E3FFFEF9F07E9F58FE493EC57
:1008B0000197F1F700C0000081E058DEA3ECB9E039
:1008C0001197F1F700C000008DE0E2E7F0E0AEEC38
:1008D000B0E001900D928A95E1F761E081E03FDFA1
:1008E0008DE0EFE7F0E0AEECB0E001900D928A957C
:1008F000E1F761E083E033DFC801110FAA0BBB0B06
:10090000898B9A8BAB8BBC8B0F2EFFE82F2EF0E0E0
:100910003F2EF02D0EEC10E00F2EFEE94F2EF0E0F2
:100920005F2EF02D2DC08F3FAFEF9A0759F4EFE403
:10093000F3EC3197F1F700C00000C801B501EBD32B
:100940008B010DC09801220F331F000F111F000FE4
:10095000111F000F111F020F131F080F191F1F93E4
:100960000F93DF92CF92FF92EF92FCD361E083E08E
:10097000F6DE0F900F900F900F900F900F9088CF92
:10098000AE01475F5F4FBE016B5F7F4FCE010196A7
:100990006FDD89809A80AB80BC80C984DA84EB8467
:1009A000FC84A5019401C501B401A8D26D877E879E
:1009B0008F87988BA5019401C501B4019FD24B018B
:1009C0005C01A7019601C701B60198D29B01AC0159
:1009D000C501B4018CD0FFD29B01AC016D817E8139
:1009E0008F81988514D1E7D020EE3EE245E652E4AF
:1009F00085D220E030E040E050E479D06B017C010A
:100A00002BED3FE049E450E479D220E030E044E3CC
:100A100053E4FDD0D6D24B015C0169897A898B8978
:100A20009C8990D1A501940169D24B015C01C70159
:100A3000B6019DDE8091E300882329F00F2EFDE2B0
:100A4000EF2EF02D04C00F2EFBE2EF2EF02DD090F4
:100A5000E400C090E5007090CC006090CD00C5012E
:100A6000B40185DE8091E300882329F00F2EFDE29A
:100A7000FF2EF02D04C00F2EFBE2FF2EF02DB090C4
:100A8000E400A090E5009090CC008090CD006F92A3
:100A90007F92CF92DF921F92EF923F922F921F93FD
:100AA0000F9360D362E081E075DDC801C4DD8F92F1
:100AB0009F92AF92BF921F92FF925F924F921F93AD
:100AC0000F9350D364E081E065DDC801B4DDFFE938
:100AD00026E881E0F15020408040E1F700C00000AE
:100AE0000FB6F894DEBF0FBECDBF4ACF5058BB271C
:100AF000AA270ED0C2C1B3D130F0B8D120F031F462
:100B00009F3F11F41EF483C10EF4E095E7FB79C119
:100B1000E92FC4D180F3BA176207730784079507DA
:100B200018F071F49EF5DCC10EF4E0950B2EBA2F8F
:100B3000A02D0B01B90190010C01CA01A0011124E3
:100B4000FF27591B99F0593F50F4503E68F11A168F
:100B5000F040A22F232F342F4427585FF3CF469520
:100B600037952795A795F0405395C9F77EF41F1642
:100B7000BA0B620B730B840BBAF09150A1F0FF0F0C
:100B8000BB1F661F771F881FC2F70EC0BA0F621FF8
:100B9000731F841F48F4879577956795B795F795E8
:100BA0009E3F08F0B3CF9395880F08F09927EE0F7A
:100BB000979587950895DF93DD27B92FBF7740E894
:100BC0005FE31616170648075B0710F4D92F8FD17D
:100BD0009F938F937F936F933CD2E6E2F0E01AD11C
:100BE0004CD12F913F914F915F9194D1DD2349F0EA
:100BF0009058A2EA2AED3FE049EC5FE3D0785D2708
:100C000087DFDF913AC1D9D008F481E008950CD094
:100C100034C12CD140F023D130F021F45F3F19F0E2
:100C2000F0C051115EC1F3C039D198F39923C9F3D3
:100C30005523B1F3951B550BBB27AA2762177307E2
:100C4000840738F09F5F5F4F220F331F441FAA1F96
:100C5000A9F333D00E2E3AF0E0E830D09150504056
:100C6000E695001CCAF729D0FE2F27D0660F771F04
:100C7000881FBB1F261737074807AB07B0E809F0E6
:100C8000BB0B802DBF01FF2793585F4F2AF09E3F7B
:100C9000510568F0B6C025C15F3FECF3983EDCF328
:100CA000869577956795B795F7959F5FC9F7880FF4
:100CB000911D9695879597F90895E1E0660F771F46
:100CC000881FBB1F621773078407BA0720F0621BD7
:100CD000730B840BBA0BEE1F88F7E095089504D0D0
:100CE0006894B111FEC00895E1D088F09F5790F04C
:100CF000B92F9927B751A0F0D1F0660F771F881F41
:100D0000991F1AF0BA95C9F712C0B13081F0E8D036
:100D1000B1E00895E5C0672F782F8827B85F39F0D4
:100D2000B93FCCF3869577956795B395D9F73EF49F
:100D300090958095709561957F4F8F4F9F4F089547
:100D4000E89409C097FB3EF4909580957095619565
:100D50007F4F8F4F9F4F9923A9F0F92F96E9BB271B
:100D60009395F695879577956795B795F111F8CF97
:100D7000FAF4BB0F11F460FF1BC06F5F7F4F8F4F02
:100D80009F4F16C0882311F096E911C0772321F0F8
:100D90009EE8872F762F05C0662371F096E8862F90
:100DA00070E060E02AF09A95660F771F881FDAF7E7
:100DB000880F9695879597F90895990F0008550F14
:100DC000AA0BE0E8FEEF16161706E807F907C0F0D1
:100DD00012161306E407F50798F0621B730B840BD9
:100DE000950B39F40A2661F0232B242B252B21F4B3
:100DF00008950A2609F4A140A6958FEF811D811D53
:100E0000089597F99F6780E870E060E008959FEF8C
:100E100080EC0895DF93CF931F930F93FF92EF928F
:100E2000DF927B018C01689405C0DA2EEF0172D04D
:100E3000FE01E894A5912591359145915591AEF328
:100E4000EF0166DEFE019701A801DA9479F7DF90E1
:100E5000EF90FF900F911F91CF91DF9108950024A3
:100E60000A941616170618060906089500240A940F
:100E700012161306140605060895092E0394000C95
:100E800011F4882352F0BB0F40F4BF2B11F460FF24
:100E900004C06F5F7F4F8F4F9F4F089557FD90584D
:100EA000440F551F59F05F3F71F04795880F97FB2E
:100EB000991F61F09F3F79F08795089512161306E8
:100EC0001406551FF2CF4695F1DF08C01616170617
:100ED0001806991FF1CF869571056105089408954C
:100EE000E894BB2766277727CB0197F908959B01E4
:100EF000AC0160E070E080E89FE389CE0BD0BDCF0D
:100F0000AEDF28F0B3DF18F0952309F07ACF7FCF5A
:100F10001124E7CFC3DFA0F3959FD1F3950F50E0E5
:100F2000551F629FF001729FBB27F00DB11D639F9B
:100F3000AA27F00DB11DAA1F649F6627B00DA11D41
:100F4000661F829F2227B00DA11D621F739FB00DE7
:100F5000A11D621F839FA00D611D221F749F332757
:100F6000A00D611D231F849F600D211D822F762FF0
:100F70006A2F11249F5750408AF0E1F088234AF0ED
:100F8000EE0FFF1FBB1F661F771F881F9150504039
:100F9000A9F79E3F510570F034CFA3CF5F3FECF32C
:100FA000983EDCF3869577956795B795F795E79525
:100FB0009F5FC1F7FE2B880F911D9695879597F936
:100FC00008959F935FD00F9007FCEE5F82C011F4ED
:100FD0000EF41DCF41C06ADFD0F39923D9F3CEF3CD
:100FE0009F57550B87FF46D00024A0E640EA9001AA
:100FF00080585695979528F4805C660F771F881F58
:1010000020F026173707480730F4621B730B840B58
:10101000202931294A2BA69517940794202531259C
:101020004A2758F7660F771F881F20F026173707C3
:10103000480730F4620B730B840B200D311D411DEA
:10104000A09581F7B901842F9158880F96958795BF
:1010500008959B01AC0152CF9F3F31F0915020F495
:10106000879577956795B795880F911D9695879584
:1010700097F9089591505040660F771F881FD2F757
:101080000895C5CE13DFE8F3E894E0E0BB279F574F
:10109000F0F02AED3FE049EC06C0EE0FBB0F661FF3
:1010A000771F881F28F0B23A62077307840728F079
:1010B000B25A620B730B840BE3959A9572F78038E2
:1010C00030F49A95BB0F661F771F881FD2F79048A0
:1010D000C5CFEF93E0FF06C0A2EA2AED3FE049EC5E
:1010E0005FEB16DDCADE0F90039401FC9058E3E538
:1010F000F0E000C09F938F937F936F93FF93EF93E4
:101100009B01AC01FBDEEF91FF9184DE2F913F91BB
:101110004F915F91F3CE97FB072E16F4009406D003
:1011200077FD08D00BD007FC05D03EF49095819553
:101130009F4F0895709561957F4F0895AA1BBB1B23
:1011400051E107C0AA1FBB1FA617B70710F0A61BC7
:10115000B70B881F991F5A95A9F780959095BC01E8
:10116000CD010895AEE0B0E0E7EBF8E098C20D895C
:101170001E8986E08C831A8309838FEF9FE79E8305
:101180008D83AE01475E5F4F6F89788DCE010196EA
:1011900009D02F813885F801E20FF31F10822E96B7
:1011A000E4E099C2ACE0B0E0E7EDF8E06AC27C01AF
:1011B0006B018A01FC0117821682838181FFB0C115
:1011C000CE0101964C01F7019381F60193FD8591C3
:1011D00093FF81916F01882309F49EC1853239F410
:1011E00093FD859193FF81916F01853221F4B701C1
:1011F00090E0B1D1E8CF512C312C20E02032A0F486
:101200008B3269F030F4803259F0833269F4206116
:101210002CC08D3239F0803339F4216026C0226031
:10122000246023C0286021C027FD27C030ED380F7F
:101230003A3078F426FF06C0FAE05F9E300D1124A4
:10124000532E13C08AE0389E300D1124332E2062B5
:101250000CC08E3221F426FD5FC1206406C08C369E
:1012600011F4206802C0883641F4F60193FD85919F
:1012700093FF81916F018111C1CF982F9F7D95546C
:10128000933028F40C5F1F4FFFE3F9830DC08336C2
:1012900031F0833771F0833509F057C021C0F80170
:1012A000808189830E5F1F4F44244394512C540145
:1012B00014C03801F2E06F0E711CF801A080B180FB
:1012C00026FF03C0652D70E002C06FEF7FEFC50100
:1012D0002C8736D12C0183012C852F77222E16C026
:1012E0003801F2E06F0E711CF801A080B18026FF7A
:1012F00003C0652D70E002C06FEF7FEFC5012C8742
:1013000014D12C012C852068222E830123FC19C0C6
:10131000832D90E048165906A0F4B70180E290E0D2
:101320001AD13A94F5CFF50127FC859127FE8191DA
:101330005F01B70190E00FD131103A94F1E04F1AFC
:1013400051084114510479F7DEC0843611F0893612
:1013500031F5F80127FF07C0608171818281938197
:101360000C5F1F4F08C060817181072E000C880B35
:10137000990B0E5F1F4F2F76722E97FF09C0909525
:101380008095709561957F4F8F4F9F4F2068722E8B
:101390002AE030E0A40117D1A82EA81843C0853751
:1013A00029F42F7EB22E2AE030E025C0F22FF97FFB
:1013B000BF2E8F36C1F018F4883579F0ADC0803774
:1013C00019F0883721F0A8C02F2F2061B22EB4FE6B
:1013D0000DC08B2D8460B82E09C024FF0AC09F2F3A
:1013E0009660B92E06C028E030E005C020E130E06C
:1013F00002C020E132E0F801B7FE07C060817181D0
:10140000828193810C5F1F4F06C06081718180E0F3
:1014100090E00E5F1F4FA401D6D0A82EA818FB2D78
:10142000FF777F2E76FE0BC0372D3E7FA51450F43C
:1014300074FE0AC072FC08C0372D3E7E05C0BA2C6F
:10144000372D03C0BA2C01C0B52C34FF0DC0FE01EE
:10145000EA0DF11D8081803311F4397E09C032FF1D
:1014600006C0B394B39404C0832F867809F0B39474
:1014700033FD12C030FF06C05A2CB31418F4530CBD
:101480005B18B32CB31460F4B70180E290E03C87A2
:1014900062D0B3943C85F6CFB31410F43B1801C06E
:1014A000312C34FF11C0B70180E390E03C8753D06A
:1014B0003C8532FF16C031FD03C088E790E002C0D2
:1014C00088E590E0B7010CC0832F867851F031FF9A
:1014D00002C08BE201C080E237FD8DE2B70190E0EF
:1014E0003AD0A51430F4B70180E390E034D05A9498
:1014F000F8CFAA94F401EA0DF11D8081B70190E0C4
:101500002AD0A110F6CF332009F45DCEB70180E2D6
:1015100090E021D03A94F7CFF7018681978102C0FD
:101520008FEF9FEF2C96E2E1C8C0FC01059061505F
:1015300070400110D8F7809590958E0F9F1F0895E9
:10154000FC016150704001900110D8F78095909592
:101550008E0F9F1F08950F931F93CF93DF93FB016F
:10156000238121FD03C08FEF9FEF28C022FF16C00B
:1015700046815781248135814217530744F4A08165
:10158000B1819D012F5F3F4F318320838C93268152
:1015900037812F5F3F4F3783268310C0EB01092F20
:1015A000182F0084F185E02D0995892BE1F68E81B5
:1015B0009F8101969F838E83812F902FDF91CF9102
:1015C0001F910F910895FA01AA27283051F1203177
:1015D00081F1E8946F936E7F6E5F7F4F8F4F9F4FC7
:1015E000AF4FB1E03ED0B4E03CD0670F781F891F09
:1015F0009A1FA11D680F791F8A1F911DA11D6A0FD7
:10160000711D811D911DA11D20D009F468943F9189
:101610002AE0269F11243019305D3193DEF6CF0188
:101620000895462F4770405D4193B3E00FD0C9F74E
:10163000F6CF462F4F70405D4A3318F0495D31FDBB
:101640004052419302D0A9F7EACFB4E0A69597950E
:10165000879577956795BA95C9F7009761057105E4
:1016600008959B01AC010A2E06945795479537952E
:101670002795BA95C9F7620F731F841F951FA01D88
:1016800008952F923F924F925F926F927F928F9226
:101690009F92AF92BF92CF92DF92EF92FF920F9301
:1016A0001F93CF93DF93CDB7DEB7CA1BDB0B0FB60B
:1016B000F894DEBF0FBECDBF09942A8839884888C8
:1016C0005F846E847D848C849B84AA84B984C8845E
:1016D000DF80EE80FD800C811B81AA81B981CE0F55
:1016E000D11D0FB6F894DEBF0FBECDBFED0108953A
:0416F000F894FFCF9C
:1016F4002A2A54696C74204465746563746F722A71
:101704002A0054696C7420616E676C653A20004449
:101714006966666572656E63653A20002564002516
:101724006325642E256420646567726565002563FE
:1017340025642E256420636D00456E746572204C0B
:0E174400656E67746820696E20636D3A200040
:00000001FF
